1000000000KUSU KUSU                xxxxxxxxxxyyyyyyyyyyzzzzzzzzzzppppppppppqqqqqqqqqqrrrrrrrrrr1234567savings##################
1999999999MAJA MAJA                aaaaaaaaaallllllllllzzzzzzzzzzppppppppppqqqqqqqqqqrrrrrrrrrr2222222current##################
1888888888RISE RISE                vvvvvvvvvvuuuuuuuuuuzzzzzzzzzzppppppppppqqqqqqqqqqrrrrrrrrrr7777777savings##################
1777777777SECE SECE                ttttttttttjjjjjjjjjjzzzzzzzzzzppppppppppqqqqqqqqqqrrrrrrrrrr8888888current##################